:100000000C9451000C947A000C947A000C947A00B1
:100010000C947A000C947A000C947A000C947A0078
:100020000C947A000C947A000C947A000C947A0068
:100030000C947A000C947A000C947A000C940A02C6
:100040000C947A000C947A000C947A000C947A0048
:100050000C947A000C947A000C947A000C947A0038
:100060000C947A000C947A000C947A000C944B0255
:100070000C9444020C9452020C947A00415474691A
:100080006E79333231362073657269616C20746524
:100090007374207265616479007469636B20000079
:1000A0009A0311241FBECFEFCDBFDFE3DEBF8091E7
:1000B000400080934000811105C098ED21E094BF7D
:1000C000209341008CBB28E3A0E0B8E301C01D925F
:1000D000AF39B207E1F710E0C1E5D0E004C02197E5
:1000E000FE010E94DE03C035D107C9F70E94CD0290
:1000F0000C94F3030C9400009FB7F89488E080936D
:10010000840A80918E0A81FFFCCF80918D0AE09154
:10011000A20AF091A30A20910A3830910B3840913D
:100120000C3850910D389FBF80FF07C0E730F105B4
:1001300020F42F5F3F4F4F4F5F4FAEEFB1E00E9473
:10014000D3036E0F7F1F811D911D660F771F881FC0
:10015000991F0895CF92DF92EF92FF92CF93DF9392
:100160006B017C010E947C00EB010E947C006C1BF7
:100170007D0B683E7340A0F0C114D104E104F1048A
:1001800039F4DF91CF91FF90EF90DF90CF900895F9
:1001900081E0C81AD108E108F108C851DC4FE5CF69
:1001A000C114D104E104F10401F7EBCFAF92BF9287
:1001B000CF92DF92EF92FF920F931F93CF93DF9333
:1001C0006C017B018B01040F151FEB015E01AE1862
:1001D000BF08C017D10759F06991D601ED91FC9184
:1001E0000190F081E02DC6010995892B79F7C501B1
:1001F000DF91CF911F910F91FF90EF90DF90CF9003
:10020000BF90AF900895FC0157854089252F30E0BD
:10021000842F90E0821B930B541710F0CF96089513
:1002200001970895FC0195858685981761F0A6854C
:10023000AE0FBF2FB11D51968C9196859F5F9F7316
:10024000968790E008958FEF9FEF0895FC019585C4
:100250008685981731F08685E80FF11D818990E039
:1002600008958FEF9FEF0895FC0195852685892FCE
:1002700090E0805C9F4F821B91098F7399270895AE
:10028000DC010FB607FE04C0809111018823B9F08C
:100290001896ED91FC911997848185FF10C01F96E7
:1002A0009C911F9750968C91981304C085818F7DE7
:1002B00085830895EEE0F8E3E8940C9460020895D5
:1002C0000F931F93CF93DF93EC018C8581608C8714
:1002D0009F85888998130BC0E885F985848185FFFF
:1002E00006C08C8581FD0EC080E4848313C0062F78
:1002F0001F851F5F1F738889811316C0CE010E945E
:100300004001F9CF85818F77806490E49483E885FC
:10031000F9858583E885F985628381E090E0DF9146
:10032000CF911F910F910895EF85EC0FFD2FF11DD7
:10033000EF5AFF4F00831F878C85E885F98581FF81
:1003400009C085818F77806690E49483E885F9857C
:100350008583E3CF85818062FBCF0F931F93CF937B
:10036000DF938C01D0E0C0E0F801EC0FFD1F649139
:10037000662341F08EE098E30E946001892B11F022
:100380002196F2CFCE01DF91CF911F910F91089569
:10039000CF93DF93EC018C85882361F0E885F985A4
:1003A000858185FD03C0848186FD04C0CE010E9445
:1003B0004001F4CFDF91CF91089542E050E06AE32D
:1003C00078E88EE098E30C94D6008231F0F490E067
:1003D000FC01E85DF74720812F3FB9F0FC01EA5EA0
:1003E000F747E08130E2E39FF0011124FC5F6130C8
:1003F00069F421838C5F9747DC018C91E80FF11D34
:100400008089613029F08860808B08952283F2CF43
:10041000877FFACFEF93FF93E4E0F8E38F938FB7F2
:100420008F939F937F9371E0808191818C5E9F4F2A
:1004300080839183885E934018F0808391837F5FEF
:100440009281970F928380E09381981F9383948188
:10045000981F94839581981F958396819F5F9683BB
:1004600097819F4F978390859F4F908791859F4F4E
:10047000918781E080938D0A7F919F918F918FBFAB
:100480008F91FF91EF911895EF93FF93F898EEE01D
:10049000F8E30C945802EF93FF93F898EEE0F8E33A
:1004A0000C948702EF93FF93EEE0F8E30C94B40210
:1004B0002F932FB72F938F939F93AF93BF936894EE
:1004C000CF93DF9320E0C085D8E09089DF01A90FAA
:1004D000B21FAF5ABF4F8C9120E42C838A839F5F59
:1004E0009F738D812785291302C08F7D8D83908B0B
:1004F000DF91CF9116F00C945F01BF91AF919F9166
:100500008F912F912FBF2F91FF91EF9118952F93DE
:100510002FB72F933F938F939F93CF93DF93C085F4
:10052000D8E0898198818674880F3485382B82FDC4
:100530000DC0C58581E08C0F8F732685281791F03B
:10054000CE0FDF2F20E0D21F998B85873487DF9174
:10055000CF919F918F913F912F912FBF2F91FF911D
:10056000EF9118953064F2CF8F938FB78F939F934D
:10057000CF93DF93C085D8E09D8188818C8187FDF2
:10058000FCCF9F7B90689D83DF91CF919F918F914E
:100590008FBF8F91FF91EF911895CF93DF93CDB7D8
:1005A000DEB7A197CDBFDEBF88ED90E084BF90930A
:1005B0006100E0E0F6E083E582838AE0858380E203
:1005C000838381E08083109202028093030A9EEF6E
:1005D0009093260A9093270A9BE09093000AE0E804
:1005E000FAE02DEF31E026A737A7118290E8928339
:1005F000848781E18083789480911A3880FF12C0CB
:100600008EE098E30E94C801E0911638F091173807
:100610001682158280EC848380911C3880931B386D
:1006200010921A38FFB6F894E0911638F091173806
:10063000168283E087838BE292E08087918714861D
:1006400080E8858380EC8683909119380091183872
:1006500080910102992309F46BC0816080930102AB
:10066000090F1127111F000F111F000F111F045038
:10067000184761E0F80180810E94E50162E0F8011D
:1006800081810E94E501FFBE64E670E080E090E0B9
:100690000E94AA008CE790E00E94AD010E94DD015B
:1006A0009AE0C92ED12CE12CF12C89E990E00E942E
:1006B000AD012091003830910138409102385091BD
:1006C0000338DA01C9010196A11DB11D80930038DC
:1006D00090930138A0930238B093033819A28E0189
:1006E0000F5D1F4FCA01B901A70196010E94B10316
:1006F000605DF80162938F012115310541055105B7
:1007000089F7309761F001900020E9F73197AF0148
:10071000401B510BB8018EE098E30E94D6000E9466
:10072000DD0168EE73E080E090E00E94AA00BDCF9A
:100730008E7F94CFEEE0F8E31282138288EE93E08E
:10074000A0E0B0E084839583A683B7838EEE97E81C
:100750008083918380E098E080879187128613865A
:100760000895A1E21A2EAA1BBB1BFD010DC0AA1FF2
:10077000BB1FEE1FFF1FA217B307E407F50720F00A
:10078000A21BB30BE40BF50B661F771F881F991F85
:100790001A9469F760957095809590959B01AC01CE
:1007A000BD01CF0108950E94E403A59F900DB49F61
:1007B000900DA49F800D911D11240895EE0FFF1F31
:1007C0000590F491E02D0994A29FB001B39FC00160
:1007D000A39F700D811D1124911DB29F700D811D6D
:0A07E0001124911D0895F894FFCF35
:1007EA00000000006001D6000301C80134011201B3
:1007FA002601070608090E0F10000405060705045E
:10080A0003020100000102030102030000000000CC
:10081A000101010101010202020200000000102090
:10082A0040802010080402010102040802040801A1
:03083A000D0A00A4
:00000001FF
