:100000000C943E000C945C000C945C000C945C001E
:100010000C945C000C945C000C945C000C945C00F0
:100020000C945C000C945C000C945C000C945C00E0
:100030000C945C000C945C000C945C000C94DC0050
:100040000C945C000C945C000C945C000C945C00C0
:100050000C945C000C945C000C945C000C945C00B0
:100060000C945C000C945C000C945C000C945C00A0
:100070000C945C000C945C000C945C0011241FBE7A
:10008000CFEFCDBFDFE3DEBF809140008093400023
:10009000811105C098ED21E094BF209341008CBBF5
:1000A00028E3A0E0B8E301C01D92AA30B207E1F74F
:1000B0000E9416010C946B010C9400009FB7F894F9
:1000C00088E08093840A80918E0A81FFFCCF809122
:1000D0008D0AE091A20AF091A30A2091063830918E
:1000E000073840910838509109389FBF80FF07C0FA
:1000F000E730F10520F42F5F3F4F4F4F5F4FAEEFDA
:10010000B1E00E9451016E0F7F1F811D911D660F8E
:10011000771F881F991F0895CF92DF92EF92FF9269
:10012000CF93DF930E945E00EB0184EFC82EDD24A5
:10013000D394E12CF12C0E945E006C1B7D0B683E79
:100140007340A0F0C114D104E104F10439F4DF914B
:10015000CF91FF90EF90DF90CF90089581E0C81A83
:10016000D108E108F108C851DC4FE5CFC114D10432
:10017000E104F10401F7EBCF92E0811116C09093F6
:1001800026049091200491FD0AC09FB7F894811134
:100190000FC080913104877F809331049FBF80918D
:1001A000010A8D7F8093010A089590932504E9CF79
:1001B000809131048860F0CFEF93FF93E0E0F8E3A3
:1001C0008F938FB78F939F937F9371E080819181FD
:1001D0008C5E9F4F80839183885E934018F080836C
:1001E00091837F5F9281970F928380E09381981F24
:1001F00093839481981F94839581981F958396810A
:100200009F5F968397819F4F978390859F4F90879D
:1002100091859F4F918781E080938D0A7F919F9177
:100220008F918FBF8F91FF91EF91189588ED90E09E
:1002300084BF90936100E0E0F6E083E582838AE08A
:10024000858380E2838381E0808310920202809321
:10025000030A9EEF9093260A9093270A9BE09093BF
:10026000000AE0E8FAE02DEF31E026A737A7118277
:1002700090E89283848781E18083789482E0809300
:10028000210480913104877F8093310481E00E94B2
:10029000BC000E948C0080E00E94BC000E948C0088
:1002A000F5CF0E945C01A59F900DB49F900DA49F77
:1002B000800D911D11240895A29FB001B39FC0012C
:1002C000A39F700D811D1124911DB29F700D811D82
:0A02D0001124911D0895F894FFCF4A
:00000001FF
