:100000000C944C000C9475000C9475000C947500C5
:100010000C9475000C9475000C9475000C9475008C
:100020000C9475000C9475000C9475000C9475007C
:100030000C9475000C9475000C9475000C9475006C
:100040000C9475000C9452050C944B050C945905B6
:100050000C9475000C9475000C9475000C9475004C
:100060000C9475000C942F050C9475000C9475007D
:100070000C9475000C94750005A84CCDB2D44EB903
:100080003836A9020C50B9918688083CA6AAAA2A3B
:10009000BE000000803FC30711241FBECFEFCDBFBD
:1000A000DFE3DEBF8091400080934000811105C0F6
:1000B00098ED21E094BF209341008CBB25E3A0E0A4
:1000C000B4E301C01D92A631B207E1F710E0CCE421
:1000D000D0E004C02197FE010E94E507CB34D10790
:1000E000C9F70E94D4050C94EF0A0C9400009FB746
:1000F000F894E0919A0AF0919B0A8091960A2091D7
:1001000012353091133540911435509115359FBFFC
:1001100080FF08C0CF018827892B21F42F5F3F4F34
:100120004F4F5F4F0F01169407941694079416943F
:100130000794F0011694079416940794E019F109B6
:10014000169407940694102C16941694011816947D
:100150001694010C1124E00DF11DA8EEB3E00E94ED
:10016000DA076E0F7F1F811D911D0895AF92BF9218
:10017000CF92DF92EF92FF920F931F93CF93DF9373
:100180006C017B018B01040F151FEB015E01AE18A2
:10019000BF08C017D10759F06991D601ED91FC91C4
:1001A0000190F081E02DC6010995892B79F7C501F1
:1001B000DF91CF911F910F91FF90EF90DF90CF9043
:1001C000BF90AF900895FC0157854089252F30E0FE
:1001D000842F90E0821B930B541710F0CF96089554
:1001E00001970895FC0195858685981761F0A6858D
:1001F000AE0FBF2FB11D51968C9196859F5F9F7357
:10020000968790E008958FEF9FEF0895FC01958504
:100210008685981731F08685E80FF11D818990E079
:1002200008958FEF9FEF0895FC0195852685892F0E
:1002300090E0805C9F4F821B91098F7399270895EE
:10024000FC010FB607FE04C0809111018823A9F0BC
:10025000A085B18514968C91149785FF0EC0978563
:100260008089981307C015968C9115978F7D1596E8
:100270008C930895E8940C94670508950F931F9349
:10028000CF93DF93EC018C8581608C879F85888973
:1002900098130BC0E885F985848185FF06C08C859D
:1002A00081FD0EC080E4848313C0062F1F851F5F6D
:1002B0001F738889811316C0CE010E942001F9CFD7
:1002C00085818F77806490E49483E885F9858583C0
:1002D000E885F985628381E090E0DF91CF911F91FD
:1002E0000F910895EF85EC0FFD2FF11DEF5AFF4F91
:1002F00000831F878C85E885F98581FF09C085818A
:100300008F77806690E49483E885F9858583E3CFD1
:1003100085818062FBCFCF93DF93EC018C858823AE
:1003200061F0E885F985858185FD03C0848186FDBE
:1003300004C0CE010E942001F4CFDF91CF91089537
:10034000FC01680F791F8FEF9FEF2191822728E032
:10035000AC014170552796958795452B21F031E0EA
:10036000832730EA9327215099F76E177F0769F7A3
:10037000089598E0811116C09093060490910004AE
:1003800093FD0AC09FB7F89481110FC080911304A8
:10039000877F809313049FBF8091010A8F7E809393
:1003A000010A089590930504E9CF809113048860B1
:1003B000F0CF0F931F93CF93DF93EC018B0181E07C
:1003C0000E94B90189EF90E00197F1F700C00000A9
:1003D000A801BE0189E794E30E94B60089E794E38F
:1003E0000E948B0187E592E00197F1F700C00000C1
:1003F00080E0DF91CF911F910F910C94B901CF93C1
:10040000DF93CDB7DEB72597CDBFDEBF89836068A8
:100410006A834B8363E070E0CE0101960E94A001E5
:100420008C839D8365E070E0CE0101960E94D90126
:100430002596CDBFDEBFDF91CF9108958231F0F4D4
:1004400090E0FC01EC5DF94620812F3FB9F0FC0102
:10045000EE5EF946E08130E2E39FF0011124FC5F9B
:10046000613069F4218380509A46DC018C91E80F59
:10047000F11D8089613029F08860808B0895228386
:10048000F2CF877FFACF4F925F926F927F928F92D7
:100490009F92AF92BF92CF92DF92EF92FF92CF9353
:1004A000DF93CDB7DEB76697CDBFDEBF8090013456
:1004B00090900234A0900334B0900434C09005347E
:1004C000D0900634E0900734F0900834209109343D
:1004D00030910A3440910B3450910C342D833E837B
:1004E0004F83588720910D3430910E3440910F3452
:1004F0005091103429873A874B875C8720911134BB
:1005000030911234409113345091143429833A833A
:100510004B835C8320911734309118344091193407
:1005200050911A342D873E874F87588B40901B344B
:1005300050901C3460901D3470901E3440911F34D4
:10054000509120344D8B5E8B9B01AC010E94FB07C8
:100550002BED3FE049E450E40E94F20920E030E056
:10056000A9010E94FB070E945F0A20E030E447EEE9
:1005700054E40E94F20920E030EA45E255E40E948A
:10058000FB070E94BF09698B7A8B8B8B9C8B20E0C9
:1005900030E0A901C501B4010E94670870E060E085
:1005A00087FD10C020E030E040E251E4C501B40115
:1005B0000E94F20920E030E040E05FE30E94FB0788
:1005C0000E94DE08609321347093223420E030E0F2
:1005D000A901C701B6010E94670870E060E087FDCD
:1005E00010C020E030E040E251E4C701B6010E94B3
:1005F000F20920E030E040E05FE30E94FB070E9448
:10060000DE08609323347093243420E030E0A901A5
:100610006D817E818F8198850E94670870E060E01F
:1006200087FD12C020E030E040E251E46D817E8120
:100630008F8198850E94F20920E030E040E05FE37E
:100640000E94FB070E94DE086093253470932634D5
:1006500020E030E0A90169857A858B859C850E9420
:10066000670870E060E087FD12C020E030E048ECF1
:1006700052E469857A858B859C850E94F20920E089
:1006800030E040E05FE30E94FB070E94DE086093D9
:1006900027347093283420E030E0A90169817A8101
:1006A0008B819C810E94670870E060E087FD12C02A
:1006B00020E030E048EC52E469817A818B819C81B2
:1006C0000E94F20920E030E040E05FE30E94FB0777
:1006D0000E94DE086093293470932A3489899A89AC
:1006E00080932B3490932C3420E030E0A9016D8569
:1006F0007E858F8598890E94670870E060E087FD9D
:1007000012C020E030E040E251E46D857E858F85A7
:1007100098890E94F20920E030E040E05FE30E9407
:10072000FB070E94DE0860932D3470932E3420E086
:1007300030E0A901C301B2010E94670870E060E0E7
:1007400087FD10C020E030E040E251E4C301B20177
:100750000E94F20920E030E040E05FE30E94FB07E6
:100760000E94DE0860932F34709330342D893E89C7
:1007700020933134309332346696CDBFDEBFDF91A3
:10078000CF91FF90EF90DF90CF90BF90AF909F9070
:100790008F907F906F905F904F900895CF92DF92EF
:1007A000EF92FF92CF93DF936B017C01C0E0D4E323
:1007B00081E0888320E030E040EB51E4C7010E94F3
:1007C0006C089B01AC010E94FB072BED3FE049E464
:1007D00050E40E94F20920E030E0A9010E94FB07EA
:1007E0000E945F0A20E030E040EF51E40E94F209ED
:1007F00020E030E04EE353E40E94FB0769837A83F4
:100800008B839C8320E030E040ED51E4C701B601CA
:100810000E946C089B01AC010E94FB072BED3FE09E
:1008200049E450E40E94F2092AE939E949E95FE321
:100830000E94FB070E945F0A20E030E040EF51E495
:100840000E94F20920E030E04EE353E40E94FB07EF
:100850006D837E838F83988720E030E040EF51E402
:10086000C701B6010E946C089B01AC010E94FB0706
:100870002BED3FE049E450E40E94F2092AE939E90E
:1008800049E150E40E94FB070E945F0A20E030E04B
:100890004CE052E40E94F20920E030E04FE253E4E1
:1008A0000E94FB0769877A878B879C8720E030E06E
:1008B00040EA51E4C701B6010E946C089B01AC01FB
:1008C0000E94FB072BED3FE049E450E40E94F2094F
:1008D0002AE939E949E15FE30E94FB070E945F0AC8
:1008E00024E333E343EB5FE30E94F20926E636E6B6
:1008F00046E551E40E94FB076D877E878F87988BC2
:1009000020E030E040E951E4C701B6010E946C08E4
:100910009B01AC010E94FB072BED3FE049E450E452
:100920000E94F20926E636E646EE5FE30E94FB07E8
:100930000E945F0A20E030E040EC5FE30E94F20991
:1009400020E030E040E651E40E94FB07698B7A8B9F
:100950008B8B9C8B20E030E040EE51E4C701B60168
:100960000E946C089B01AC010E94FB072BED3FE04D
:1009700049E450E40E94F20926E636E646E65FE3E3
:100980000E94FB070E945F0A20E030E040EA51E449
:100990000E94F20920E030E044EB52E40E94FB07A1
:1009A0006F8B788F898F9A8F20E030E040E05DE395
:1009B000C701B6010E94F2099B01AC010E94FB072E
:1009C0002BED3FE049E450E40E94F20926E636E6CA
:1009D00046E050E40E94FB070E945F0A20E030E0FE
:1009E00040E252E40E94F20920E030E040EF52E49D
:1009F0000E94FB076B8F7C8F8D8F9E8F20E030E0F5
:100A000040E85DE3C701B6010E94F2099B01AC0119
:100A10000E94FB072BED3FE049E450E40E94F209FD
:100A200026E636E646E650E40E94FB070E945F0A8F
:100A300020E030E048E452E40E94F20920E030E097
:100A400048E452E40E94FB070E94BF096F8F78A31D
:100A5000DF91CF91FF90EF90DF90CF900895EF93CB
:100A6000FF93E2E1F5E38F938FB78F9380818F5FE0
:100A7000808381818F4F818382818F4F82838381A5
:100A80008F4F838381E08093960A8F918FBF8F91E0
:100A9000FF91EF911895EF93FF93F898E9E7F4E34E
:100AA0000C945F05EF93FF93F898E9E7F4E30C9457
:100AB0008E05EF93FF93E9E7F4E30C94BB052F93C6
:100AC0002FB72F938F939F93AF93BF936894CF9338
:100AD000DF9320E0C085D8E09089DF01A90FB21F25
:100AE000AF5ABF4F8C9120E42C838A839F5F9F7302
:100AF0008D812785291302C08F7D8D83908BDF9197
:100B0000CF9116F00C943D01BF91AF919F918F91C1
:100B10002F912FBF2F91FF91EF9118952F932FB702
:100B20002F933F938F939F93CF93DF93C085D8E00C
:100B3000898198818674880F3485382B82FD0DC099
:100B4000C58581E08C0F8F732685281791F0CE0F15
:100B5000DF2F20E0D21F998B85873487DF91CF91DB
:100B60009F918F913F912F912FBF2F91FF91EF91E7
:100B700018953064F2CF8F938FB78F939F93CF9355
:100B8000DF93C085D8E09D8188818C8187FDFCCF73
:100B90009F7B90689D83DF91CF919F918F918FBFB5
:100BA0008F91FF91EF911895CF93DF93CDB7DEB77B
:100BB000C054D109CDBFDEBF88ED90E084BF9093D3
:100BC0006100E0E0F6E083E081839FE0908791E2BE
:100BD000908390EA92839AE093871092E40511E063
:100BE0001093030A9EEF9093260A9093270A9BE0A6
:100BF0009093000A2FE037E220939C0A30939D0ADD
:100C00001093950A1092910A8093900A789461E06B
:100C100080E10E941E0280E00E94B9012FB7F89483
:100C2000609112357091133580911435909115357E
:100C30002FBF0E940D0920E030E04AE754E40E94F3
:100C40006C086B017C010E94CE03C701B6010E94B3
:100C50004302109384348091853480FF12C089E769
:100C600094E30E948B01E0918134F09182341682EA
:100C7000158280EC8483809187348093863410922F
:100C80008534FFB6F894E0918134F0918234168275
:100C900083E0878386EB92E080879187148680E8E3
:100CA000858380EC86839091843400918334809195
:100CB000E20523EF011101C02CEF8223292F30E040
:100CC00042E0011101C040E0B90102C0660F771F88
:100CD0004A95E2F7862B8093E205933099F0020F54
:100CE000132F111D000F111F000F111F0C501A465A
:100CF00061E0F80180810E941E0262E0F8018181BA
:100D00000E941E02FFBE8FB7F894C0901235D0909B
:100D10001335E0901435F09015358FBFC701B6013B
:100D20000E940D0920E030E04AE754E40E946C087C
:100D30002B013C0189E794E30E9414010091773470
:100D4000109178341816190624F589E794E30034D5
:100D50001105C0F40E94F20098012F5F3F4F2093CD
:100D6000773430937834F801E95CFB4C80830E943F
:100D70007700609333347093343480933534909398
:100D80003634D8CF0E94F200109277341092783423
:100D9000EECF0115110509F4A3C00E9477008090E1
:100DA000333490903434A0903534B0903634681990
:100DB00079098A099B09663D76408105910508F409
:100DC0008FC00430110508F487C0580122E0A21A30
:100DD000B108B50187E394E30E94A001F801EA5C41
:100DE000FB4C2081F501E95CFB4C30812327322745
:100DF00023272817390709F06FC0809137348230D4
:100E000008F06AC060913834633009F0B7C08823B5
:100E100009F462C00830110509F05EC0E091393470
:100E2000F0913A34FE27EF27FE2780913B349091D2
:100E30003C349827892798279C0121503109293073
:100E4000310548F4E930F10530F49F01280F391FCE
:100E50002A30310530F042E063E081E00E94FF017A
:100E60003BC021E0298323E02A83282F220F2B83F4
:100E7000EE0FFF1FEF5DFB4CDE011196912C812CD4
:100E80005D0120813181329613963C93139714961D
:100E90002C93149794012F5F3F4F1296821793075C
:100EA00009F06AC0880C991C84010B5F1F4FB801C0
:100EB000C5010E94A001F501E00FF11F8083E7E06A
:100EC000F0E0EC0FFD1FE80DF91D9083B401695FA0
:100ED0007F4FC5010E94D901109277341092783467
:100EE00080910E3590910F35A0911035B09111354C
:100EF0000097A105B10569F0B701A601481B590B80
:100F00006A0B7B0BDB01CA01883E9340A105B1054A
:100F100060F0C301B2010E94CE03C0920E35D092A0
:100F20000F35E0921035F092113580910A3590918D
:100F30000B35A0910C35B0910D350097A105B10589
:100F400071F0A7019601281B390B4A0B5B0BDA01E4
:100F5000C90184369105A105B10508F4D4CEC301B9
:100F6000B2010E944302C0920A35D0920B35E09242
:100F70000C35F0920D35C7CE490183CF882309F493
:100F8000ABCF41E06ACFE9E7F4E31282138288EE47
:100F900093E0A0E0B0E084839583A683B78386EED8
:100FA00095E98083918380E098E08087918712861D
:100FB000138608950E94EB07A59F900DB49F900D96
:100FC000A49F800D911D11240895EE0FFF1F059021
:100FD000F491E02D0994A29FB001B39FC001A39F9B
:100FE000700D811D1124911DB29F700D811D112462
:100FF000911D08955058BB27AA270E9412080C94EF
:1010000085090E94770938F00E947E0920F039F4A2
:101010009F3F19F426F40C9474090EF4E095E7FB55
:101020000C946E09E92F0E94960958F3BA176207CB
:1010300073078407950720F079F4A6F50C94B80996
:101040000EF4E0950B2EBA2FA02D0B01B9019001E3
:101050000C01CA01A0011124FF27591B99F0593F27
:1010600050F4503E68F11A16F040A22F232F342F6F
:101070004427585FF3CF469537952795A795F040BD
:101080005395C9F77EF41F16BA0B620B730B840BD2
:10109000BAF09150A1F0FF0FBB1F661F771F881F8A
:1010A000C2F70EC0BA0F621F731F841F48F48795E2
:1010B00077956795B795F7959E3F08F0B0CF9395D4
:1010C000880F08F09927EE0F9795879508950E944D
:1010D0004A0908F481E008950E9480080C9485096B
:1010E0000E947E0958F00E94770940F029F45F3F82
:1010F00029F00C946E0951110C94B9090C947409DF
:101100000E94960968F39923B1F3552391F3951B37
:10111000550BBB27AA2762177307840738F09F5F18
:101120005F4F220F331F441FAA1FA9F335D00E2E85
:101130003AF0E0E832D091505040E695001CCAF7F2
:101140002BD0FE2F29D0660F771F881FBB1F2617B5
:1011500037074807AB07B0E809F0BB0B802DBF018C
:10116000FF2793585F4F3AF09E3F510578F00C945B
:101170006E090C94B9095F3FE4F3983ED4F3869569
:1011800077956795B795F7959F5FC9F7880F911D7C
:101190009695879597F90895E1E0660F771F881F68
:1011A000BB1F621773078407BA0720F0621B730B1B
:1011B000840BBA0BEE1F88F7E09508950E949E09F4
:1011C00088F09F5798F0B92F9927B751B0F0E1F008
:1011D000660F771F881F991F1AF0BA95C9F714C0B8
:1011E000B13091F00E94B809B1E008950C94B809AB
:1011F000672F782F8827B85F39F0B93FCCF38695F1
:1012000077956795B395D9F73EF49095809570954D
:1012100061957F4F8F4F9F4F0895E89409C097FBCA
:101220003EF490958095709561957F4F8F4F9F4FBD
:101230009923A9F0F92F96E9BB279395F695879501
:1012400077956795B795F111F8CFFAF4BB0F11F4C4
:1012500060FF1BC06F5F7F4F8F4F9F4F16C088236B
:1012600011F096E911C0772321F09EE8872F762FA1
:1012700005C0662371F096E8862F70E060E02AF0E2
:101280009A95660F771F881FDAF7880F96958795CE
:1012900097F90895990F0008550FAA0BE0E8FEEFA3
:1012A00016161706E807F907C0F012161306E4072A
:1012B000F50798F0621B730B840B950B39F40A2623
:1012C00061F0232B242B252B21F408950A2609F401
:1012D000A140A6958FEF811D811D089597F99F6705
:1012E00080E870E060E008959FEF80EC08950024AE
:1012F0000A941616170618060906089500240A947B
:1013000012161306140605060895092E0394000C00
:1013100011F4882352F0BB0F40F4BF2B11F460FF8F
:1013200004C06F5F7F4F8F4F9F4F089557FD9058B8
:10133000440F551F59F05F3F71F04795880F97FB99
:10134000991F61F09F3F79F0879508951216130653
:101350001406551FF2CF4695F1DF08C01616170682
:101360001806991FF1CF86957105610508940895B7
:10137000E894BB2766277727CB0197F908950E9449
:101380009E0958F19E5760F19851A0F0E9F098300D
:1013900020F5092E9927660F771F881F991F0A9439
:1013A000D1F712C0062E672F782F8827985F11F487
:1013B000000C07C0993FB4F3869577956795939590
:1013C000D9F7611D711D811D3EF490958095709532
:1013D00061957F4F8F4F9F4F089568940C94B90982
:1013E0000C94B8090E94050A0C9485090E9477099B
:1013F00038F00E947E0920F0952311F00C946E09BC
:101400000C94740911240C94B9090E94960970F384
:10141000959FC1F3950F50E0551F629FF001729F99
:10142000BB27F00DB11D639FAA27F00DB11DAA1FA8
:10143000649F6627B00DA11D661F829F2227B00DF5
:10144000A11D621F739FB00DA11D621F839FA00D80
:10145000611D221F749F3327A00D611D231F849FD0
:10146000600D211D822F762F6A2F11249F57504027
:101470009AF0F1F088234AF0EE0FFF1FBB1F661FA2
:10148000771F881F91505040A9F79E3F510580F06B
:101490000C946E090C94B9095F3FE4F3983ED4F3C1
:1014A000869577956795B795F795E7959F5FC1F70F
:1014B000FE2B880F911D9695879597F908959F9318
:1014C0000E94690A0F9007FCEE5F0C94920A0C943C
:1014D00074090E949E09D8F3E894E0E0BB279F5767
:1014E000F0F02AED3FE049EC06C0EE0FBB0F661F9F
:1014F000771F881F28F0B23A62077307840728F025
:10150000B25A620B730B840BE3959A9572F780388D
:1015100030F49A95BB0F661F771F881FD2F790484B
:101520000C94A80AEF93E0FF07C0A2EA2AED3FE07F
:1015300049EC5FEB0E9412080E9485090F9003940A
:1015400001FC9058E8E7F0E00C94B40A9F3F31F0BA
:10155000915020F4879577956795B795880F911DE1
:101560009695879597F908959F938F937F936F939F
:10157000FF93EF939B01AC010E94F209EF91FF9161
:101580000E94C80A2F913F914F915F910C94F209EC
:10159000DF93CF931F930F93FF92EF92DF927B0124
:1015A0008C01689406C0DA2EEF010E94050AFE0144
:1015B000E894A5912591359145915591A6F3EF01B8
:1015C0000E941208FE019701A801DA9469F7DF90E2
:1015D000EF90FF900F911F91CF91DF910895F894B4
:0215E000FFCF3B
:1015E200000000003E01B600E3008B011401F2008E
:1015F2000601070608090E0F10000C0B0B0D04055F
:1016020006070504030201000001020301020300B0
:1016120000000000010101010101020202020000BA
:10162200000010204080201008040201010204087A
:0416320002040801A5
:00000001FF
