:100000000C946A000C949E000C949E000C949E002C
:100010000C949E000C949E000C94BA050C94B605AA
:100020000C949E000C949E000C949E000C949E00D8
:100030000C949E000C949E000C949E000C949E00C8
:100040000C949E000C940C060C9405060C9413065C
:100050000C949E000C949E000C949E000C949E00A8
:100060000C94B2050C9496050C949E000C949E0082
:100070000C949E000C949E0008000000BE9224493F
:10008000123EABAAAA2ABECDCCCC4C3E00000080CA
:10009000BEABAAAAAA3E00000000BF000000803F3D
:1000A0000000000000084178D3BB4387D1133D19FD
:1000B0000E3CC3BD4282AD2B3E68EC8276BED98F2A
:1000C000E1A93E4C80EFFFBE01C4FF7F3F0000006E
:1000D0000000F30911241FBECFEFCDBFDFE3DEBF69
:1000E0008091400080934000811105C098ED21E08F
:1000F00094BF209341008CBB14E3A0E0B4E3E8E09C
:10010000FBE102C005900D92AA32B107D9F725E3B1
:10011000AAE2B4E301C01D92A737B207E1F710E0ED
:10012000CAE6D0E004C02197FE010E944B0AC936FE
:10013000D107C9F70E948E060C944F0D0C94000055
:100140009FB7F894E0919A0AF0919B0A8091960AE1
:1001500020917335309174354091753550917635D5
:100160009FBF80FF08C0CF018827892B21F42F5F14
:100170003F4F4F4F5F4F0F0116940794169407940B
:1001800016940794F0011694079416940794E019B6
:10019000F109169407940694102C169416940118DD
:1001A00016941694010C1124E00DF11DA8EEB3E095
:1001B0000E94400A6E0F7F1F811D911D08950F93AD
:1001C0001F930E94A000AB01BC0180912D3590913E
:1001D0002E35A0912F35B09130350097A105B1058E
:1001E00059F440932D3550932E3560932F357093ED
:1001F00030351F910F9108958A019B01081B190B3F
:100200002A0B3B0BD901C80189391AE39107A105D3
:10021000B10578F340932D3550932E3560932F35EB
:100220007093303520912C3521111EC080933135CB
:1002300090933235A0933335B09334358093353570
:1002400090933635A0933735B09338358093393550
:1002500090933A35A0933B35B0933C3510924F3490
:1002600081E080932C35C5CFE0914F3424E0E29FAC
:10027000F0011124EF5CFA4C80839183A283B38355
:1002800080914F3490E0019663E070E00E940A0A8A
:1002900080934F34AECFAF92BF92CF92DF92EF9266
:1002A000FF920F931F93CF93DF936C017B018B0120
:1002B000040F151FEB015E01AE18BF08C017D10770
:1002C00059F06991D601ED91FC910190F081E02DFA
:1002D000C6010995892B79F7C501DF91CF911F914F
:1002E0000F91FF90EF90DF90CF90BF90AF90089567
:1002F000FC0157854089252F30E0842F90E0821B38
:10030000930B541710F0CF96089501970895FC01B0
:1003100095858685981761F0A685AE0FBF2FB11D14
:1003200051968C9196859F5F9F73968790E0089574
:100330008FEF9FEF0895FC0195858685981731F022
:100340008685E80FF11D818990E008958FEF9FEF7A
:100350000895FC0195852685892F90E0805C9F4F4C
:10036000821B91098F7399270895FC010FB607FE30
:1003700004C0809111018823A9F0A085B18514964D
:100380008C91149785FF0EC097858089981307C0BC
:1003900015968C9115978F7D15968C930895E894FA
:1003A0000C94210608950F931F93CF93DF93EC01D4
:1003B0008C8581608C879F85888998130BC0E88520
:1003C000F985848185FF06C08C8581FD0EC080E49F
:1003D000848313C0062F1F851F5F1F7388898113B5
:1003E00016C0CE010E94B501F9CF85818F77806458
:1003F00090E49483E885F9858583E885F9856283AF
:1004000081E090E0DF91CF911F910F910895EF85EA
:10041000EC0FFD2FF11DEF5AFF4F00831F878C85D6
:10042000E885F98581FF09C085818F77806690E432
:100430009483E885F9858583E3CF85818062FBCF4E
:10044000CF93DF93EC018C85882361F0E885F985F3
:10045000858185FD03C0848186FD04C0CE010E9494
:10046000B501F4CFDF91CF910895FC01680F791F9A
:100470008FEF9FEF2191822728E0AC014170552733
:1004800096958795452B21F031E0832730EA932715
:10049000215099F76E177F0769F70895CF93DF937F
:1004A000282F30E0E901CA50D54688818F3F09F4F2
:1004B0003BC0A9014E525546DA01EC91B0E2EB9FE8
:1004C000F0011124FC5F611132C086839081892381
:1004D000A1F4C90180549546DC019C91309749F103
:1004E000983038F57096E90FF11D9FB7F894808128
:1004F000611122C0877F80839FBF2C513546F9014F
:100500008081882389F0803179F48881DA019C9197
:100510009130A1F4853010F0880F82959091010AF6
:10052000809589238093010ADF91CF910895858377
:10053000CDCFF0E0E0E0D9CF8860DDCF880FEECFFF
:100540000F931F93CF93DF93EC018B0161E080E168
:100550000E944E0289EF90E00197F1F700C0000081
:10056000A801BE0186E994E30E944B0186E994E369
:100570000E94200287E592E00197F1F700C0000099
:1005800060E080E1DF91CF911F910F910C944E02BA
:10059000CF93DF93CDB7DEB72597CDBFDEBF1B82EC
:1005A0001C821D82898360686A834B8363E070E0EC
:1005B000CE0101960E9435028C839D8365E070E038
:1005C000CE0101960E94A0022596CDBFDEBFDF912D
:1005D000CF9108958231F0F490E0FC01EA50F546A5
:1005E00020812F3FB9F0FC01EE52F546E08130E268
:1005F000E39FF0011124FC5F60FF0DC02183805454
:100600009546DC018C91E80FF11D808961FF05C0E2
:100610008860808B08952283F2CF877FFACF60E0D5
:10062000009721F08F3F910544F061E080E00E9447
:100630004E0261E080E00C94EA0280932B0A8091E4
:10064000010A80628093010AF4CF8F929F92AF9249
:10065000BF92EF92FF920F931F93CF93DF93F82FE8
:10066000082F0F73A02F87FFAFEF30EDF32EFA0E98
:1006700040911E344F70E1E1493008F4E1E058E068
:1006800060E070E0CB0122EFE22EEF0EB8EFBF0F7B
:10069000C2E0CF0FD3EFDF0F14E01F0FF7FD11C043
:1006A000312FF63088F022E03D2F2E1568F43C2FD4
:1006B000B63050F023E03A2F2F1530F42FEF32E808
:1006C00022C00131B8F7302F209100062223A1F17A
:1006D00020910A06277099F530930C06E0930A06DC
:1006E0002091050620FFFCCF809010069090110607
:1006F000A0901206B090130694014A3021F435956B
:10070000279535952795620F731F811D911D5150B7
:1007100029F60E94730B20E030E040E05EE30E9487
:10072000AD0CDF91CF911F910F91FF90EF90BF9093
:10073000AF909F908F90089529EF32E8E4CF2EEF8D
:1007400032E8E1CFCF92DF92EF92FF9282E00E94F7
:10075000250320E030EF4FE755E40E94D20A20E065
:1007600030E040E251E40E94AD0C20E030E040E295
:1007700051E40E94610A20914E34211110C060930F
:10078000253470932634809327349093283481E065
:1007900080934E34FF90EF90DF90CF900895C090FB
:1007A0002534D0902634E0902734F0902834A701E7
:1007B00096010E94600A23E333E343EB5EE30E9469
:1007C000AD0CA70196010E94610A609325347093D5
:1007D00026348093273490932834DCCFCF92DF9255
:1007E000EF92FF926B017C0120E030E0A9010E94B2
:1007F000CD0A1816A4F420E03FEF4FE757E4C701F5
:10080000B6010E94250C87FF0DC0C701B6010E94EA
:100810007A0CCB01FF90EF90DF90CF90089590E09D
:1008200080E0F8CF8FEF9FEFF5CFCF92DF92EF927E
:10083000FF92CF93DF9320E030E040E251E46091FB
:1008400001347091023480910334909104340E94F9
:10085000AD0C0E94EE0380933D3590933E3520E031
:1008600030E040E251E460910734709108348091A7
:10087000093490910A340E94AD0C0E94EE038093DB
:100880003F359093403520E030E040E251E4609104
:100890000D3470910E3480910F34909110340E9479
:1008A000AD0C0E94EE03809341359093423520E0D9
:1008B00030E040E251E46091193470911A34809133
:1008C0001B3490911C340E94AD0C0E94EE03809367
:1008D000493590934A3520E030E040E251E46091A0
:1008E00013347091143480911534909116340E9411
:1008F000AD0C0E94EE0380934B3590934C3588E00D
:100900000E94250320E030EF4FE755E40E94D20A11
:1009100023E333E343E550E40E94AD0C20E030E0F4
:1009200040EC50E40E94AD0C20E030E048EC52E492
:100930000E94AD0C0E94EE038093433590934435A2
:10094000C0900134D0900234E0900334F09004342D
:1009500020E030E046E153E4C701B6010E94CD0A31
:10096000C0E0181614F520E030E044E353E4C7017A
:10097000B6010E94250CC4E687FF17C020E030E0D6
:1009800046E153E4C701B6010E94600A20E030E06E
:1009900048EC52E40E94AD0C20E030E040EF51E41E
:1009A0000E94D20A0E947A0CC62F2FEFC29FC0016C
:1009B000112464E670E00E940A0ACB010E940F0332
:1009C000D0E0C0934D35D0934E35DF91CF91FF905D
:1009D000EF90DF90CF9008958F929F92AF92BF9249
:1009E000CF92DF92EF92FF921F93CF93DF93C0E0FD
:1009F000D4E311E088810E9425036B017C0120E093
:100A000030E040E85FE30E94CD0A87FD71C020E03E
:100A100030EE4FE755E4C701B6010E94250C1816C9
:100A20003CF4C12C90EED92E9FE7E92E95E4F92EE7
:100A300020E030E04AEF54E4C701B6010E94AD0C5B
:100A40004B015C01A701960160E070EF8FE795E430
:100A50000E94600A9B01AC01C501B4010E94D20A48
:100A600020E030E44CE156E40E94D20A0E94320CAD
:100A700020E030EE46E755E40E94D20A2FE03FEC3A
:100A80004BE55BE30E94610A9B01AC0160E070E012
:100A900080E89FE30E94D20A23E333E948E853E465
:100AA0000E94600A26E636E646EE5FE30E94AD0C41
:100AB00020E030E040E052E40E94610A2D812111E3
:100AC0001EC069837A838B839C831D83269684E36F
:100AD000CE31D80709F08ECFDF91CF911F91FF90D3
:100AE000EF90DF90CF90BF90AF909F908F90089540
:100AF000C12CD12C80E8E82E8FE3F82E99CFC98045
:100B0000DA80EB80FC80A70196010E94600A2DEC40
:100B10003CEC4CEC5DE30E94AD0CA70196010E94F9
:100B2000610A69837A838B839C83D0CFEF93FF9391
:100B3000E3E7F5E38F938FB78F9380818F5F808397
:100B400081818F4F818382818F4F828383818F4FF9
:100B5000838381E08093960A8F918FBF8F91FF915D
:100B6000EF9118950F9304E00C94BE050F9302E0EB
:100B70000C94BE050F9300E00C94BE050F920FB6C7
:100B80000F921F921124FF921F932F933F934F9325
:100B90005F936F937F938F939F93AF93BF93CF9305
:100BA000DF93EF93FF93AFE1B4E3A00FB11DCD91BD
:100BB000DC91000F0D5FA02FB0E0FC90109761F06A
:100BC0001F2D169518F041F02296FBCFE991F9916F
:100BD0003097B9F30995F5CFA02FB0E0FC92FF91C3
:100BE000EF91DF91CF91BF91AF919F918F917F91C5
:100BF0006F915F914F913F912F911F91FF901F90A7
:100C00000F900FBE0F900F911895EF93FF93F898E8
:100C1000E6E9F4E30C941906EF93FF93F898E6E9FC
:100C2000F4E30C944806EF93FF93E6E9F4E30C94A5
:100C300075062F932FB72F938F939F93AF93BF93E7
:100C40006894CF93DF9320E0C085D8E09089DF01DE
:100C5000A90FB21FAF5ABF4F8C9120E42C838A8317
:100C60009F5F9F738D812785291302C08F7D8D83A0
:100C7000908BDF91CF9116F00C94D201BF91AF9180
:100C80009F918F912F912FBF2F91FF91EF911895E9
:100C90002F932FB72F933F938F939F93CF93DF93F0
:100CA000C085D8E0898198818674880F3485382B77
:100CB00082FD0DC0C58581E08C0F8F7326852817B6
:100CC00091F0CE0FDF2F20E0D21F998B85873487DC
:100CD000DF91CF919F918F913F912F912FBF2F91B6
:100CE000FF91EF9118953064F2CF8F938FB78F9368
:100CF0009F93CF93DF93C085D8E09D8188818C81BD
:100D000087FDFCCF9F7B90689D83DF91CF919F9162
:100D10008F918FBF8F91FF91EF911895CF93DF93B4
:100D2000CDB7DEB7A897CDBFDEBF88ED90E084BF1A
:100D300090936100E0E0F6E083E081839FE090879C
:100D400091E2908310EA12839AE093871092E4056F
:100D500091E09093030A2EEF2093260A2093270A0E
:100D60002BE02093000A2FE037E220939C0A309377
:100D70009D0A9093950A1092910A8093900A789414
:100D800061E080E10E94EA0260E080E10E944E02A0
:100D900061E080E00E94EA0290E080E00E940F03A0
:100DA00060E08AE00E94EA0260E08BE00E94EA02D2
:100DB00060E08CE00E94EA0260E08DE00E94EA02BE
:100DC00060E081E00E94EA0260E082E00E94EA02C4
:100DD00060E088E00E94EA0260E085E00E94EA02AA
:100DE0001093020680911E34807F8C6080931E34A5
:100DF0000E94EC040E94A2030E94150420E030E04F
:100E000048EC52E460912534709126348091273467
:100E1000909128340E94AD0C0E94EE0380934535DA
:100E2000909346351092473510924835E091213421
:100E3000F0912234309769F08FED90E080879187B0
:100E40009FB7F89480913404887F82608093340443
:100E50009FBF81E08093A1348091A23480FF12C0B3
:100E600086E994E30E942002E0919E34F0919F3441
:100E70001682158280EC84838091A4348093A334FD
:100E80001092A234FFB6F894E0919E34F0919F3412
:100E9000168283E0878386EB92E0808791871486B1
:100EA00080E8858380EC86839091A1340091A03402
:100EB0008091E20523EF011101C02CEF8223292F3D
:100EC00030E042E0011101C040E0B90102C0660F0C
:100ED000771F4A95E2F7862B8093E205933099F0CD
:100EE000020F132F111D000F111F000F111F0C54A3
:100EF000154661E0D8018C910E94EA0262E0F80197
:100F000081810E94EA02FFBE3324339480916B35C5
:100F1000811115C02FB7F894809173359091743575
:100F2000A0917535B09176352FBF8093673590933A
:100F30006835A0936935B0936A3530926B358091EE
:100F40005F35811115C02FB7F8948091733590915A
:100F50007435A0917535B09176352FBF80935B3590
:100F600090935C35A0935D35B0935E3530925F35DC
:100F700080915335811115C02FB7F8948091733546
:100F800090917435A0917535B09176352FBF8093CF
:100F90004F3590935035A0935135B09352353092E0
:100FA00053358FB7F89440907335509074356090F6
:100FB0007535709076358FBF86E994E30E94A9015C
:100FC00000919434109195341816190614F586E999
:100FD00094E30E94870100341105B0F498012F5F5B
:100FE0003F4F2093943430939534F801EC5AFB4CE6
:100FF00080830E94A000609350347093513480939A
:10100000523490935334D8CF109294341092953434
:10101000F0CF0115110509F4A0C00E94A000C090F6
:101020005034D0905134E0905234F09053346C19D5
:101030007D098E099F09663D76408105910508F47A
:101040008CC00430110508F484C0780122E0E21A53
:10105000F108B70184E594E30E943502F801ED5AE6
:10106000FB4C2081F701EC5AFB4C308123273227BF
:1010700023272817390709F06CC080915434813038
:1010800009F067C06091553441E0633019F50830CC
:10109000110509F05EC0E0915634F0915734FE27F7
:1010A000EF27FE278091583490915934982789274B
:1010B00098279C01215031092930310548F4E93045
:1010C000F10530F49C012E0F3F1F2A30310530F01E
:1010D00042E063E081E00E94C8023BC0398223E025
:1010E0002A83282F220F2B83EE0FFF1FE35CFA4C7D
:1010F000DE01119610E000E07D0120813181329601
:1011000013963C93139714962C93149798012F5F82
:101110003F4F12968217930709F0D7C0000F111F97
:10112000680135E0C30ED11CB601C7010E9435022B
:10113000F701EC0DFD1D8083E7E0F0E0EC0FFD1FF3
:10114000E00FF11F9083B801695F7F4FC7010E94D4
:10115000A00210929434109295348091673590914A
:101160006835A0916935B0916A35B301A201481B79
:10117000590B6A0B7B0B443651056105710580F0F4
:101180008C599F4FAF4FBF4F809367359093683511
:10119000A0936935B0936A350E94EC040E94A203C3
:1011A00080914F3590915035A0915135B091523585
:1011B000B301A201481B590B6A0B7B0B4436510546
:1011C0006105710508F45EC08C599F4FAF4FBF4F4A
:1011D00080934F3590935035A0935135B09352354D
:1011E00020E030E048EC52E46091253470912634E0
:1011F00080912734909128340E94AD0C0E94EE0318
:101200008093453590934635F894C0903135D09011
:101210003235E0903335F09034358090353590900C
:101220003635A0903735B0903835409139355091EA
:101230003A3560913B3570913C3549A35AA36BA375
:101240007CA360912D3570912E3580912F35909132
:1012500030356DA37EA38FA398A780912C35789409
:10126000811135C010922B351092273510922835F8
:101270001092293510922A3570E060E0609347356E
:101280007093483580915B3590915C35A0915D35C8
:10129000B0915E35481A590A6A0A7B0A58EE45161B
:1012A00053E055066104710408F430CE88519C4F18
:1012B000AF4FBF4F80935B3590935C35A0935D3506
:1012C000B0935E350E94150421CE890116CF0E948D
:1012D000A0002DA13EA14FA158A5621B730B840B4A
:1012E000950B613874488E41910508F0BBCF8C1482
:1012F0009D04AE04BF0450F0382D292D9A2D8B2D5E
:1013000046015701C32ED22EE92EF82E89A19AA1AB
:10131000ABA1BCA1C816D906EA06FB0610F4D7019A
:10132000C601BC01CD01681579058A059B0510F43D
:10133000C501B4010E94730B9B01AC0160EC71EE1E
:1013400084EE9CE40E94D20A20912B3521112CC0FE
:1013500060932735709328358093293590932A35EB
:1013600030922B3560912735709128358091293541
:1013700090912A350E94440B675E7F4F8F4F9F4F9D
:1013800022E330E040E050E00E941E0AA2E3B0E019
:101390000E94400A6115710541E08407910508F437
:1013A0006DCF6FEF7FEF6ACFC0902735D090283593
:1013B000E0902935F0902A35A70196010E94600A35
:1013C0002AE939E949E15EE30E94AD0CA7019601E3
:1013D0000E94610A609327357093283580932935E0
:1013E00090932A35BFCFE6E9F4E31282138288EEA8
:1013F00093E0A0E0B0E084839583A683B78386EA78
:101400009AE98083918380E098E0808791871286B3
:1014100013860895AA1BBB1B51E107C0AA1FBB1F5F
:10142000A617B70710F0A61BB70B881F991F5A9570
:10143000A9F780959095BC01CD010895A1E21A2EDF
:10144000AA1BBB1BFD010DC0AA1FBB1FEE1FFF1F68
:10145000A217B307E407F50720F0A21BB30BE40BB8
:10146000F50B661F771F881F991F1A9469F76095FF
:101470007095809590959B01AC01BD01CF010895B9
:101480000E94510AA59F900DB49F900DA49F800DBE
:10149000911D11240895EE0FFF1F0590F491E02D8A
:1014A0000994A29FB001B39FC001A39F700D811D3D
:1014B0001124911DB29F700D811D1124911D08955D
:1014C0005058BB27AA270E94780A0C94EB0B0E9465
:1014D000DD0B38F00E94E40B20F039F49F3F19F443
:1014E00026F40C94DA0B0EF4E095E7FB0C94D40B85
:1014F000E92F0E94FC0B58F3BA17620773078407A1
:10150000950720F079F4A6F50C941E0C0EF4E095E6
:101510000B2EBA2FA02D0B01B90190010C01CA01AD
:10152000A0011124FF27591B99F0593F50F4503E58
:1015300068F11A16F040A22F232F342F4427585F4A
:10154000F3CF469537952795A795F0405395C9F762
:101550007EF41F16BA0B620B730B840BBAF091501A
:10156000A1F0FF0FBB1F661F771F881FC2F70EC0B9
:10157000BA0F621F731F841F48F48795779567958C
:10158000B795F7959E3F08F0B0CF9395880F08F078
:101590009927EE0F9795879508950E94B00B08F450
:1015A00081E008950E94E60A0C94EB0B0E94E40B84
:1015B00058F00E94DD0B40F029F45F3F29F00C94B5
:1015C000D40B51110C941F0C0C94DA0B0E94FC0BE1
:1015D00068F39923B1F3552391F3951B550BBB2762
:1015E000AA2762177307840738F09F5F5F4F220FA7
:1015F000331F441FAA1FA9F335D00E2E3AF0E0E89E
:1016000032D091505040E695001CCAF72BD0FE2FE7
:1016100029D0660F771F881FBB1F2617370748077B
:10162000AB07B0E809F0BB0B802DBF01FF27935833
:101630005F4F3AF09E3F510578F00C94D40B0C9418
:101640001F0C5F3FE4F3983ED4F38695779567953A
:10165000B795F7959F5FC9F7880F911D9695879568
:1016600097F90895E1E0660F771F881FBB1F621787
:1016700073078407BA0720F0621B730B840BBA0B45
:10168000EE1F88F7E09508950E94040C88F09F579C
:1016900098F0B92F9927B751B0F0E1F0660F771F96
:1016A000881F991F1AF0BA95C9F714C0B13091F08C
:1016B0000E941E0CB1E008950C941E0C672F782F29
:1016C0008827B85F39F0B93FCCF386957795679551
:1016D000B395D9F73EF490958095709561957F4FBD
:1016E0008F4F9F4F0895E89409C097FB3EF4909563
:1016F0008095709561957F4F8F4F9F4F9923A9F0EB
:10170000F92F96E9BB279395F69587957795679579
:10171000B795F111F8CFFAF4BB0F11F460FF1BC0BD
:101720006F5F7F4F8F4F9F4F16C0882311F096E950
:1017300011C0772321F09EE8872F762F05C06623FE
:1017400071F096E8862F70E060E02AF09A95660FB7
:10175000771F881FDAF7880F9695879597F9089570
:10176000990F0008550FAA0BE0E8FEEF16161706B2
:10177000E807F907C0F012161306E407F50798F01A
:10178000621B730B840B950B39F40A2661F0232B33
:10179000242B252B21F408950A2609F4A140A695AF
:1017A0008FEF811D811D089597F99F6780E870E094
:1017B00060E008959FEF80EC089500240A941616C7
:1017C000170618060906089500240A94121613062F
:1017D000140605060895092E0394000C11F48823BD
:1017E00052F0BB0F40F4BF2B11F460FF04C06F5FD9
:1017F0007F4F8F4F9F4F089557FD9058440F551FAF
:1018000059F05F3F71F04795880F97FB991F61F082
:101810009F3F79F087950895121613061406551FF9
:10182000F2CF4695F1DF08C0161617061806991F65
:10183000F1CF86957105610508940895E894BB275A
:1018400066277727CB0197F908950E94B00B08F41B
:101850008FEF089516F00C941A0D0C94DA0B68941F
:101860000C94D40B0E94040CA8F39923C1F3AEF39B
:10187000DF93CF931F930F93FF92C92FDD27882308
:101880002AF02197660F771F881FDAF720E030E0F3
:1018900040E85FEB9FE3883920F0803E38F02196E6
:1018A0008F770E94610AE8E7F0E004C00E94610AB5
:1018B000E5EAF0E00E94280D8B01BE01EC01FB2E51
:1018C0006F5771097595771F880B990B0E94750BDF
:1018D00028E132E741E35FE30E94C00CAF2D98019D
:1018E000AE01FF900F911F91CF91DF910E94780A76
:1018F0000C94EB0B0E94040C58F19E5760F1985128
:10190000A0F0E9F0983020F5092E9927660F771F8F
:10191000881F991F0A94D1F712C0062E672F782FBF
:101920008827985F11F4000C07C0993FB4F386959F
:10193000779567959395D9F7611D711D811D3EF4CB
:1019400090958095709561957F4F8F4F9F4F08952B
:1019500068940C941F0C0C941E0C0E94C00C0C94E8
:10196000EB0B0E94DD0B38F00E94E40B20F0952376
:1019700011F00C94D40B0C94DA0B11240C941F0C62
:101980000E94FC0B70F3959FC1F3950F50E0551F1B
:10199000629FF001729FBB27F00DB11D639FAA27C4
:1019A000F00DB11DAA1F649F6627B00DA11D661F13
:1019B000829F2227B00DA11D621F739FB00DA11D34
:1019C000621F839FA00D611D221F749F3327A00DEE
:1019D000611D231F849F600D211D822F762F6A2F8A
:1019E00011249F5750409AF0F1F088234AF0EE0FEF
:1019F000FF1FBB1F661F771F881F91505040A9F71C
:101A00009E3F510580F00C94D40B0C941F0C5F3F4B
:101A1000E4F3983ED4F3869577956795B795F79557
:101A2000E7959F5FC1F7FE2B880F911D96958795CF
:101A300097F908959F3F31F0915020F4879577955D
:101A40006795B795880F911D9695879597F9089595
:101A5000DF93CF931F930F93FF92EF92DF927B015F
:101A60008C01689406C0DA2EEF010E94C00CFE01C2
:101A7000E894A5912591359145915591A6F3EF01F3
:101A80000E94780AFE019701A801DA9469F7DF90B5
:101A9000EF90FF900F911F91CF91DF910895F894EF
:021AA000FFCF76
:101AA20000000000D3014B0178012002A901870147
:101AB2009B01070608090E0F10000C0B0B0D040505
:101AC20006070504030201000001020301020300EC
:101AD20000000000010101010101020202020000F6
:101AE20000001010000000000010101000000000A4
:101AF20000001000102040802010080402010102A2
:061B0200040802040801C2
:101B08000A00000000000B00000000000C000000AC
:101B180000000D00000000000100000000008A3EE7
:0A1B28003432342A3400002041005A
:00000001FF
